{
  "_format": "hh-sol-artifact-1",
  "contractName": "HaHaHub",
  "sourceName": "contracts/HaHaHub.sol",
  "abi": [
    {
      "inputs": [],
      "stateMutability": "nonpayable",
      "type": "constructor"
    },
    {
      "inputs": [],
      "name": "createJoke",
      "outputs": [],
      "stateMutability": "nonpayable",
      "type": "function"
    },
    {
      "inputs": [],
      "name": "getJokeCount",
      "outputs": [
        {
          "internalType": "uint256",
          "name": "",
          "type": "uint256"
        }
      ],
      "stateMutability": "view",
      "type": "function"
    }
  ],
  "bytecode": "0x60806040526000805534801561001457600080fd5b5061005d6040518060400160405280601981526020017f4861486148756220636f6e7472616374206465706c6f7965640000000000000081525061006260201b6101081760201c565b6101e5565b6100fe816040516024016100769190610163565b6040516020818303038152906040527f41304fac000000000000000000000000000000000000000000000000000000007bffffffffffffffffffffffffffffffffffffffffffffffffffffffff19166020820180517bffffffffffffffffffffffffffffffffffffffffffffffffffffffff838183161783525050505061010160201b60201c565b50565b60008151905060006a636f6e736f6c652e6c6f679050602083016000808483855afa5050505050565b600061013582610185565b61013f8185610190565b935061014f8185602086016101a1565b610158816101d4565b840191505092915050565b6000602082019050818103600083015261017d818461012a565b905092915050565b600081519050919050565b600082825260208201905092915050565b60005b838110156101bf5780820151818401526020810190506101a4565b838111156101ce576000848401525b50505050565b6000601f19601f8301169050919050565b61054d806101f46000396000f3fe608060405234801561001057600080fd5b50600436106100365760003560e01c8063335fe3191461003b57806397afb89214610045575b600080fd5b610043610063565b005b61004d6100bd565b60405161005a91906103db565b60405180910390f35b60016000808282546100759190610412565b925050819055506100bb6040518060400160405280601381526020017f2573206861732073656e742061206a6f6b652100000000000000000000000000815250336101a1565b565b60006101006040518060400160405280601c81526020017f57652068617665202564206a6f6b6528732920696e20746f74616c210000000081525060005461023d565b600054905090565b61019e8160405160240161011c9190610359565b6040516020818303038152906040527f41304fac000000000000000000000000000000000000000000000000000000007bffffffffffffffffffffffffffffffffffffffffffffffffffffffff19166020820180517bffffffffffffffffffffffffffffffffffffffffffffffffffffffff83818316178352505050506102d9565b50565b61023982826040516024016101b792919061037b565b6040516020818303038152906040527f319af333000000000000000000000000000000000000000000000000000000007bffffffffffffffffffffffffffffffffffffffffffffffffffffffff19166020820180517bffffffffffffffffffffffffffffffffffffffffffffffffffffffff83818316178352505050506102d9565b5050565b6102d582826040516024016102539291906103ab565b6040516020818303038152906040527fb60e72cc000000000000000000000000000000000000000000000000000000007bffffffffffffffffffffffffffffffffffffffffffffffffffffffff19166020820180517bffffffffffffffffffffffffffffffffffffffffffffffffffffffff83818316178352505050506102d9565b5050565b60008151905060006a636f6e736f6c652e6c6f679050602083016000808483855afa5050505050565b61030b81610468565b82525050565b600061031c826103f6565b6103268185610401565b93506103368185602086016104a4565b61033f81610506565b840191505092915050565b6103538161049a565b82525050565b600060208201905081810360008301526103738184610311565b905092915050565b600060408201905081810360008301526103958185610311565b90506103a46020830184610302565b9392505050565b600060408201905081810360008301526103c58185610311565b90506103d4602083018461034a565b9392505050565b60006020820190506103f0600083018461034a565b92915050565b600081519050919050565b600082825260208201905092915050565b600061041d8261049a565b91506104288361049a565b9250827fffffffffffffffffffffffffffffffffffffffffffffffffffffffffffffffff0382111561045d5761045c6104d7565b5b828201905092915050565b60006104738261047a565b9050919050565b600073ffffffffffffffffffffffffffffffffffffffff82169050919050565b6000819050919050565b60005b838110156104c25780820151818401526020810190506104a7565b838111156104d1576000848401525b50505050565b7f4e487b7100000000000000000000000000000000000000000000000000000000600052601160045260246000fd5b6000601f19601f830116905091905056fea2646970667358221220f243ca2ccbe79db21cb400d443a0dcdd897e023cd6aa4b8839059fd5656b566f64736f6c63430008040033",
  "linkReferences": {},
  "deployedLinkReferences": {}
}